:020000040800F2
:10000000200800205D020008B1220008A922000893
:10001000AD220008B1050008B92C0008000000005E
:10002000000000000000000000000000292500087A
:100030002D06000800000000B52200082D2500084C
:1000400077020008770200087702000877020008AC
:10005000770200087702000877020008770200089C
:10006000770200087702000877020008770200088C
:10007000770200087702000877020008770200087C
:10008000770200087702000877020008770200086C
:10009000770200087702000877020008770200085C
:1000A000770200087702000877020008770200084C
:1000B000770200087702000877020008770200083C
:1000C000770200087702000877020008770200082C
:1000D000770200087702000877020008770200081C
:1000E000770200087702000877020008770200080C
:1000F00077020008770200087702000877020008FC
:1001000077020008770200087702000877020008EB
:1001100077020008770200087702000877020008DB
:1001200077020008770200087702000877020008CB
:1001300077020008770200087702000877020008BB
:1001400077020008770200087702000877020008AB
:10015000770200087702000877020008770200089B
:10016000770200087702000877020008770200088B
:1001700077020008770200087702000800000000FC
:10018000770200087702000800F002F800F057F844
:1001900014A696E8000CB244B344DA4501D100F04D
:1001A0004EF8BAE80F000FA696E83000A5EB04055C
:1001B00004EB0607AAEB0704A7F101074FEA1515A0
:1001C0004FEA3414A4F10104AC4201D300F037F833
:1001D00013F0010F18BFFB1A43F0010300F001F800
:1001E000DBE718470C2E00002C2E0000103A24BF2D
:1001F00078C878C1FAD8520724BF30C830C144BF8C
:1002000004680C6070470000704700000023002461
:1002100000250026103A28BF78C1FBD8520728BF16
:1002200030C148BF0B607047732900F05481002033
:1002300070471FB502F0A2FE1FBD10B510BD00F043
:100240007DF91146FFF7F5FF02F048FD00F09BF93C
:1002500003B4FFF7F2FF03BC00F0A2F9094880479E
:1002600009480047FEE7FEE7FEE7FEE7FEE7FEE798
:10027000FEE7FEE7FEE7FEE704480549054A064BB0
:100280007047000031250008890100082002002085
:1002900020080020200400202004002053EA020C43
:1002A00000F069802DE9F04B4FF00006002B1FBFD6
:1002B000B3FA83F503FA05F424FA05F65E4012BF9B
:1002C0001643B2FA82F502FA05F4C5F120051EBF05
:1002D00022FA05FC44EA0C04203556EA044C4FEAA5
:1002E000144418BF641C4FF000084FF000099042FE
:1002F00071EB030C39D3002919BFB1FA81F701FA68
:1003000007F6B0FA80F700FA07F6C7F120071EBF1C
:1003100020FA07FC46EA0C062037B6FBF4FCA7EBF4
:100320000507103F07F01F0BCBF120062CFA06F64D
:100330000CFA0BFB44BFB3460026202FA4BF5E4639
:100340004FF0000B5BEA060C08BF4FF0010B19EBF6
:100350000B0948EB0608ABFB027C06FB02CC0BFB4F
:1003600003CCC01B71EB0C01C1E70B4602464146B2
:100370004846BDE8F08B13B5084318BF4FF0FF3077
:100380000146AFF30080BDE81C4070470FB404493C
:1003900010B503AA029800F0A3F810BC5DF814FB96
:1003A000700000202DE9F0410E4604460020206236
:1003B0002046E168884730B3252805D0D4E90121DB
:1003C0009047206A401CF2E7E168204600278847F2
:1003D000050018D0A5F14100192802D820354FF4A6
:1003E00000673246294620462760FFF71DFF40B1CF
:1003F000012804D0F61D26F007060836D8E7361D7A
:10040000D6E72846DAE7206ABDE8F08170B50C46E9
:100410000546012A05D02878800600D5EA69002320
:1004200002E0012305E05B1C934202D2E05C00285D
:10043000F9D1A869E618C01AA861286A1844286288
:100440002846AFF3008004E0D5E9012114F8010B40
:100450009047B442F8D32846AFF3008070BD4FF008
:10046000000200B5134694469646203922BFA0E804
:100470000C50A0E80C50B1F12001BFF4F7AF090710
:1004800028BFA0E80C5048BF0CC05DF804EB890001
:1004900028BF40F8042B08BF704748BF20F8022B44
:1004A00011F0804F18BF00F8012B7047704770475C
:1004B000704710B5436913B1AFF3008001E0FFF757
:1004C000A5FF012010BD127800F124010A7000225E
:1004D0004A700122EDE711684FF0FF32E9E70000B2
:1004E000074B70B50D467B4400F011F804462846D2
:1004F00000F020F810B14FF0FF3070BD204670BD05
:10050000D327000001694A1C02610878704700B5D2
:100510008FB0CDE901310021059105497944CDE93C
:10052000031011466846FFF73DFF0FB000BD000005
:10053000E5FFFFFF007B00F080007047754600F08C
:100540002BF8AE4605006946534620F00700854665
:1005500018B020B5FFF790FEBDE820404FF0000630
:100560004FF000074FF000084FF0000BAC46ACE82E
:10057000C009ACE8C009ACE8C009ACE8C00921F08A
:1005800007018D46704710B50446AFF30080204642
:10059000BDE81040FFF75CBE004870471000002027
:1005A00001491820ABBEFEE726000200704700009C
:1005B000FEE7000070B540F20044C4F6000404F504
:1005C0008066054600F001023046012100F092FCF1
:1005D000C5F340022046082100F08CFCC5F38002E0
:1005E0002046202100F086FCC5F3C00220461021E1
:1005F00000F080FCC5F3001220464FF4806100F04B
:1006000079FCC5F340124FF090404FF4807100F038
:1006100071FCC5F380123046802100F06BFCEA09C2
:1006200020464021BDE8704000F064BC70470000E7
:10063000EFF3108072B600BFFEE7000090F8502084
:10064000012A04BF0220704770B582B0002340F237
:10065000083201930093C5F204020368A2F54274C4
:10066000A3422FD14FF6006E4FF60055CFF6FF7E16
:10067000CFF6FF7552F80E40535923435B0721D440
:10068000D1F800C01368BCF1000F23F4604427D0F8
:100690004B6890F8306043EA463323431360535964
:1006A00052F80E606FF0FF05555933432B43DB07BB
:1006B00026D1136840F61F768968B343194341EA8F
:1006C0000C011CE0416D41F0200141650121002237
:1006D00080F8502002B0BDE870400846704700BF67
:1006E0001460515952F80E306FF0FF0696591943B5
:1006F0003143C90704D1116840F61F739943116053
:100700000021E4E7F0B581B00022009290F850207B
:10071000012A03D10221084601B0F0BD0123076878
:1007200080F85030BB685B0700F19A804B68052B5E
:1007300006D8023B032B9ABFC9A555F823300623E0
:10074000C3F3012407EB84040D68226B03F01F033D
:100750001F269E40B243C5F3846606FA03F31A438C
:100760002263BA68BB6802F0040203F00803D218DF
:1007700040F091800A688B68C2F3406607EB8606FA
:100780007569C2F3045207249440A54303FA02F2A8
:100790002A437261D1E90435FC68042B66D13A6EB4
:1007A0003A6E0B68C2F3846293FAA3F6C3F3846CC7
:1007B0006FF3DF43B6FA86F5002B2C464FF6FF7E2B
:1007C00008BF6446A242C0F2070E0CD13A6E22F076
:1007D00000423A660A6802EA0E03C2F3846C92FA97
:1007E000A2F2B2FA82F57A6E7A6E002BC2F38462BC
:1007F0002C4608BF6446A2420CD17A6E22F0004219
:100800007A660A6802EA0E03C2F3846C92FAA2F2D4
:10081000B2FA82F5BA6EBA6E002BC2F384622C462D
:1008200008BF6446A2420CD1BA6E22F00042BA66FA
:100830000A6802EA0E03C2F3846C92FAA2F2B2FAD8
:1008400082F5FA6EFA6E002BC2F3846208BF654629
:10085000AA4220D1FA6E22F00042FA661BE000BFE5
:10086000416D41F0200141650121F2E0062202EADA
:1008700094020E6807EB830305FA02F21D6E4FF235
:100880000004C0F2FF3406F0F846254032432A4304
:1008900042F000421A66BA680D68D20750D1CA68A1
:1008A000D7F8B0602B466FF3DF4326EA030C4FF610
:1008B000FF7602F01804C0F20706E64000242E403E
:1008C000C4F27F0446EA0C06A242C7F8B06037D1F2
:1008D00093B195FAA5F2B2FA82F2013202F01E0348
:1008E000092B02F01F0310D801229A4003EB4303A7
:1008F00042EA035315E000BF012202EB956202F0C9
:100900001E030A2B02F01F03EED3012200269A4099
:1009100003EB4303CFF6206606EB03531A4342F082
:100920000073C3F3406607EB86068A687569C3F3F4
:10093000045307249C40A5439A402A4372610D68E2
:100940000021C8F208010D4200F0828040F2083C0C
:10095000C5F2040CDCF800400021CCF252718D424B
:1009600004F0E07E08BF14F4000119D00021CCF699
:1009700084318D4254D10021B1EB1E6F50D140F231
:10098000002247F40071C5F20402914260D1DCF804
:10099000001021F0E07141EA0E0141F0807155E054
:1009A00040F2002247F40071C5F2040291424FD197
:1009B000DCF8001042F6635221F0E07141EA0E01CA
:1009C00041F40001CCF8001040F20801C2F200012D
:1009D0000968C0F23E528909A1FB0212910901EB9C
:1009E00041010C2202EB81010091009981B3009931
:1009F00001390091009959B300990139009100998A
:100A000031B3009901390091009909B30099013976
:100A10000091009900294FF00001E8D119E000BFD2
:100A2000ACF542718F424FF0000112D10122C8F2A1
:100A30000002954208BF14F480020AD1DCF80010CD
:100A400021F0E07141EA0E0141F48001CCF8001080
:100A50000021002280F85020084601B0F0BD00BF00
:100A60000C0000001200000018000000000100004F
:100A7000B0B582B00446002001904CB1606D58B111
:100A800021688868800012D48868C00019D54CE0BD
:100A9000012002B0B0BD00BF204600F0F3F80020F6
:100AA000A06584F85000216888688000ECD58868CB
:100AB0004FF6C072C5F6FF72104088608868C000AB
:100AC00033D44FF6C0728868C5F6FF7202F18052C7
:100AD000104000F18050886040F20800C2F200002F
:100AE000006842F663528009C0F23E52A0FB020247
:100AF0009009022202EB400001900198A8B100BFCA
:100B0000019801380190019878B10198013801905D
:100B1000019850B1019801380190019828B10198CD
:100B20000138019001980028EAD18868C00009D4F2
:100B3000606D40F010006065A06D40F00100A065A0
:100B4000012000E000208A68636D02F0040203F0D7
:100B50001003D218626D7BD122F481720232626579
:100B60008A68D20720D140F2083C4FF600534FF676
:100B70000062C5F2040CCFF6FF73CFF6FF725CF88B
:100B800003E05CF802206FF0FF035CF8033042EAF8
:100B90000E021A43D20707D16268DCF8003023F452
:100BA0007C131A43CCF8002094F819E0636BD4E965
:100BB00002C243EA4E331A4394F8203042EA0C0250
:100BC000012B42EA034207D1D4F824C00023CFF618
:100BD000FE7303EB4C431A43A36A33B1D4F82CC021
:100BE00003F4707343EA0C031A43D1F80CC04CF2BF
:100BF0000703CFF6F07303EA0C031A43CA608A684E
:100C000012072ED494F83030227E5B0094F838C05E
:100C100043EA823ECB6844F2020223EA020242EA3D
:100C20000E02CA600A69BCF1010F17D140F2FD73D0
:100C300022EA030CD4E90F32D4E911E543EA0C03AC
:100C40001A4342EA0E022A4342F0010208E000BFC2
:100C500042F010010120616502B0B0BD22F0010236
:100C60000A6122690B6B012A23F00F0202D1E369AA
:100C7000013B1A430A63616D012262F30101616560
:100C800002B0B0BD10B5A8B004460020CDE92600E2
:100C900001A820306821FFF7E2FB20680021C5F29F
:100CA0000401884202D028B010BD00BF4FF480403C
:100CB00001904FF0805008211F90022004910721DD
:100CC0000290CDE9051007904FF080700124089044
:100CD00001A8039400F00AFA002818BFFFF7A8FC47
:100CE00041F24C00C4F20200016841F4005101607D
:100CF000016801F4005100910099016841F001017F
:100D00000160006823A900F00100009000980B200A
:100D10002490002025904FF09040239400F002F89A
:100D200028B010BD2DE9F04F82B00D68002D00F005
:100D3000DB8000F13847860546EA972741F6000632
:100D4000C4F600060722B04208BF0622062F38BFAD
:100D50003A464FF0000B0027002600920AE000BF41
:100D60000D68013635FA06F207F102070BF1040BA4
:100D700000F0BA80012202FA06FE15EA0E08EFD052
:100D8000D1F8049009F0030AAAF10105022D15D249
:100D90000323826803FA07F5CB68AA43BB401A43D2
:100DA00082604268C9F3001322EA0E02B3404FEAA0
:100DB000460CEC431A43426017E000BFBAF1030F40
:100DC0000ED1C56AC9F3C00225EA0E05B2402A4316
:100DD0004FF0030AC2620AFA07F2D443BC4625E088
:100DE000032202FA07F5EC43BC46C2688B68224036
:100DF00003FA0CF31A43BAF1020FC26016D16FF076
:100E0000030202EA560202440BF01C050F23D2F83B
:100E100020E003FA05F90B692EEA090EAB4043EA1C
:100E20000E031362D1F8049009F0030A02680AFA6B
:100E30000CF322401A4319F4403F026090D041F273
:100E40006003C4F202031A6840F2004E42F001024D
:100E50001A601A68C4F2010E02F001020192019AAE
:100E600026F003024FF608497244CFF6FF7952F894
:100E700009C00BF00C050F23009CAB402CEA0303C8
:100E800004FA05F52B4342F80930DEF808204B68D8
:100E900042EA080540F20C4CDC0258BF22EA080581
:100EA000CEF80850C4F2010CDCF800209C0242EAA3
:100EB000080558BF22EA0805CCF80050DEF80420E7
:100EC0009C0342EA080558BF22EA0805CEF8045000
:100ED000DEF80020DB0342EA080558BF22EA0805D5
:100EE000CEF800503CE700BF02B000F000B830BCC4
:100EF000BDE8C08F1823002A08BF2823C1507047BF
:100F000040F21820C2F200000068704740F2000072
:100F100040F21821C2F20000C2F2000100780A6813
:100F2000104408607047000080B542F20000C4F22F
:100F30000200016841F480710160032000F078F83C
:100F4000002000F009F800281CBF012080BD00F03F
:100F500029F8002080BD000070B540F20006C2F202
:100F600000063178E1B1044640F20800C2F2000008
:100F70004FF47A720068B2FBF1F1B0FBF1F001F0CE
:100F80003BF80F2C4FF0010508D838B94FF0FF306F
:100F900021460022002500F01FF87460284670BD2D
:100FA000012070BD82B041F25800C4F20200816895
:100FB00041F001018160816801F001010191019915
:100FC000016841F080510160006800F0805000909D
:100FD000009802B07047000010B54EF60C5CCEF2DF
:100FE000000CDCF80030C3F3022E8EF00704042C52
:100FF00028BF0424BEF103034FF0FF3E0EFA04F4B1
:1010000038BF0023A14399400EFA03F39A431143DA
:1010100000F00F0200F160430901043A03F5644354
:101020006244002848BF02F10C03197010BD000093
:101030004EF60C51CEF200010A684FF6FF031A403B
:1010400060F30A2242F0806040F0FD700860704753
:1010500047F20001C4F200010A68B0F5007F02F413
:10106000C06031D1B0F5007F2CD00868012262F356
:101070004A20086040F20800C2F2000000683222F4
:1010800050434DF68362C4F21B32A0FB0202900C67
:101090004A69520511D5421C0FD04A6952050CD538
:1010A00058B14A69520508D5012806D04A69520547
:1010B00003D50228A0F10400EAD14869400544BFE5
:1010C0000320704700207047B0F5806FFAD00868A1
:1010D000022262F34A2008600020704747F20000B5
:1010E000C4F20000006800F4C06070472DE9F047CA
:1010F00082B00446407841F288070007C4F2020734
:1011000030D5606E4FEAB05103290BD8DFE801F00B
:1011100002101C25201D002101F0CEF8064670B9F2
:101120001AE000BF01266078C0060BD51EE000BFA4
:1011300004F12000002101F067F9064660B16078F3
:10114000C00613D4B2464EE057F87C1C41F48031FF
:1011500047F87C1C01E000BF606E396821F4400153
:101160000843386000266078C006EBD5A06E4FEAD1
:10117000306003280AD8B246DFE800F002102216D9
:10118000201D002101F098F80DE000BF4FF0010A8A
:101190004FF00108A07880070DD528E004F1200069
:1011A000002101F031F98246BAF1000FD04612D089
:1011B000A07880071BD4C2462168C80768D088E0A1
:1011C00057F87C0CB24640F4803047F87C0CBAF1FA
:1011D000000FD046ECD13868A16E20F04070084373
:1011E0004FF0000A3860B046A0788007E3D557F882
:1011F000300C5FEAC0090BD457F8300C40F0805037
:1012000047F8300C57F8300C00F0805001900198EE
:1012100047F20005C4F20005286840F48070286099
:10122000FFF76EFE064600BF2868C00508D4FFF72A
:1012300067FE801B0228F7D94FF0030A22E000BFA7
:10124000BAF1000F1ED1B86810F4407012D0D4F873
:10125000841088420BD0B868B96820F4407041F41B
:101260008031B960B96821F48031B960B860C007D5
:1012700040F01C81B868D4F8841020F44070084312
:10128000C246B860B9F1000F1AD52168C80720D14D
:10129000880726D448072CD4080732D4C80638D487
:1012A00088063ED4880544D448054AD4480650D41C
:1012B000080656D4C8055CD4880462D473E000BF25
:1012C00057F8300C20F0805047F8300C2168C807E0
:1012D000DED03868A26B20F0030010433860880726
:1012E000D8D53868E26B20F00C001043386048070E
:1012F000D2D53868226C20F03000104338600807DF
:10130000CCD53868626C20F0C00010433860C80645
:10131000C6D53868A26C20F4407010433860880647
:10132000C0D53868E26C20F440601043386088050E
:10133000BAD53868E26D20F4402010433860480583
:10134000B4D53868226E20F4401010433860480647
:10135000AED53868226D20F440501043386008063E
:10136000A8D53868626D20F4404010433860C80545
:10137000A2D53868A26D20F440301043386088044C
:1013800011D53A68E06E22F040620243B0F1806FFE
:101390003A601DD0B0F1006F05D157F87C0C40F4D5
:1013A000801047F87C0C080326D53A68206F22F09D
:1013B00040620243B0F1806F3A6015D0B0F1006F27
:1013C0001AD157F87C0C40F4801047F87C0C13E0DD
:1013D000201D012100F070FF2168002818BF8246FF
:1013E0000803E2D408E000BF201D012100F064FFE3
:1013F0002168002818BF8246480311D53A68606FFB
:1014000022F040620243B0F1806F3A601CD0B0F12C
:10141000006F05D157F87C0C40F4801047F87C0C25
:10142000480425D53968A06F21F040510143B0F13F
:10143000005F396014D0B0F1805F19D1201D022106
:1014400000F03AFF11E000BF201D012100F034FF41
:101450002168002818BF82464804E3D408E000BF92
:1014600004F12000022100F0CFFF002818BF8246BF
:101470002068010406D4C0030CD4504602B0BDE875
:10148000F08700BF3968E26F21F080411143396075
:10149000C003F2D53868D4F8801020F0004008432B
:1014A0003860504602B0BDE8F08700BFFFF728FD66
:1014B000064641F288354FF0030A00BFB86880073E
:1014C0003FF5D8AEFFF71CFD801BA842F6D9D9E640
:1014D0002DE9F04381B000286BD042F20008C4F23D
:1014E00002080446D8F800000D4600F007008842C4
:1014F0000CD2D8F8000020F007002843C8F80000FC
:10150000D8F8000000F00700A84252D1206841F24C
:10151000080910F00201C4F202090DD0A268D9F83E
:10152000003003F0F0039A4206D9D9F8003023F0D6
:10153000F0031A43C9F80020C2072DD169B1A16890
:10154000D9F8002002F0F002914206D2D9F800202A
:1015500022F0F0021143C9F80010D8F8001001F091
:101560000701A9420CD9D8F8001021F0070129433E
:10157000C8F80010D8F8001001F00701A94218D1EE
:1015800041071BD4000723D4D9F80000D9F8041070
:1015900010F00C002CD131E0606800285ED00228E9
:1015A00000F07E80032840F0818059F8081C8901F2
:1015B00058D4012001B0BDE8F08300BFD9F8001075
:1015C000E26821F4E0611143C9F800100007DBD59F
:1015D000D9F80000216920F4605040EAC100C9F840
:1015E0000000D9F80000D9F8041010F00C0005D064
:1015F0000C2829D101F00301012925D159F8081C33
:10160000090703D4D9F88C10090A02E059F8081C1C
:10161000090942F6B07201F00F01C0F6000252F85B
:10162000211000280A4618BF00220C2871D1D9F8D1
:10163000040000F00300022846D0032804BF41F252
:101640000021C0F27A0143E0042857D008285BD17A
:1016500041F20022C0F27A025BE000BF59F8081C98
:101660008907A6D5D9F8001021F003010843C9F86D
:101670000000FFF745FC064641F28837D9F8000024
:10168000616800F00C00B0EB810F15D0FFF738FC5B
:10169000801BB842F2D9032001B0BDE8F08300BF3F
:1016A00059F8081C89037FF584AFDBE759F8081C5B
:1016B00049057FF57EAFD5E7206800F002010029DB
:1016C0007FF43DAF49E700BF42F20041C0F2F401B0
:1016D000D9F80400D9F80420C0F30210C2F306229E
:1016E0005143D9F804200130B1FBF0F0C2F341615D
:1016F000022202EB4101B0FBF1F20AE042F20042A9
:10170000C0F2F40205E000BF002200210C283FF4E3
:101710008EAFD9F8000042F69671C0F30310C0F600
:101720000001085C00F01F0022FA00F140F2040002
:10173000C2F2000040F208020068C2F2000211602A
:1017400001B0BDE8F043FFF707BC000040F208001D
:1017500041F20801C2F20000C4F202010068096807
:1017600042F6A672C1F30221C0F60002515C01F0FC
:101770001F01C8407047000040F2080041F2080114
:10178000C2F20000C4F202010068096842F6A672C3
:10179000C1F3C221C0F60002515C01F01F01C84034
:1017A0007047000041F20C01C4F2020151F8040C30
:1017B00010F00C02086805D00C2A29D100F00300B3
:1017C000012825D151F80C0C000703D4D1F888006A
:1017D000000A02E051F80C0C000942F6B07300F068
:1017E0000F00C0F6000353F82030002A184618BF37
:1017F00000200C2A18BF7047086800F00300022878
:1018000010D0032804BF41F20023C0F27A030DE098
:10181000042A1FD0082A23D141F20020C0F27A0006
:10182000704700BF42F20043C0F2F40308680A6840
:10183000C0F30210C2F30622096801305A43B2FB1A
:10184000F0F0C1F34161022202EB4101B0FBF1F083
:10185000704700BF42F20040C0F2F400704700BF82
:1018600000200023C5E70000002804BF01207047C6
:101870002DE9F04383B041F200060446C4F20206AB
:10188000B068F168227800F00C09D00601F0030876
:101890001ED42078C00700F08880B9F1080F00F04E
:1018A0007D80B9F10C0F08BFB8F1030F76D06068E6
:1018B000B0F5803F07D0B0F5A02F40F0238230680C
:1018C00040F480203060306840F48030306024E2A2
:1018D000B9F1000F1CD0B9F10C0F08BFB8F1010F1E
:1018E00016D0A1693068002900F0B88140F00100ED
:1018F0003060FFF705FB05463068800700F1C081C6
:10190000FFF7FEFA401B02284FF00300F4D92AE348
:101910003068800703D5A069002800F0BD82256AE1
:101920003068000700F12A81D6F89400000900F021
:10193000F000854200F228813068B9F1000F40F0D4
:1019400008003060306820F0F00040EA05003060A8
:101950007068E16920F47F4040EA0120706040F047
:101960008882B06DC00000F12582B06D40F08050DB
:10197000B065B06D00F0805002900298FFF7AEFBAA
:10198000B16D21F08051B165B0F5007F00F0188293
:10199000802D40F2558203205DE200BF3068800355
:1019A00003D56068002800F07782207880072DD565
:1019B000B9F1040F1CD0B9F10C0F08BFB8F1020F38
:1019C00016D0E1683068002900F0B68140F48070DC
:1019D0003060FFF795FA0546306840050FD4FFF7F1
:1019E0008FFA401B02284FF00300F5D9BBE200BF7D
:1019F0003068400503D5E068002800F04D8270682B
:101A0000216920F0F85040EA0160706020780007FA
:101A10005ED42078400775D4A06A002800F0E882E0
:101A2000022840F0E380F068E16A00F003028A4295
:101A300040F0F480226B6FF00F0300F0700103EBB5
:101A40000212914240F0EA80616B00F4FE42B2EB78
:101A5000012F40F0E380A16B00F40032073918BF7A
:101A600001218A4240F0DA80E26B0023CFF6E07376
:101A700003EA025200F4C001A2F50012914240F0C4
:101A8000CD80216C4FF07E4202EA016100F0C0601F
:101A900001F17E41884240F0C1803068800100F150
:101AA000A782306840F080703060F06840F080704D
:101AB000F060FFF725FA04463068800100F1988253
:101AC000FFF71EFA001B02284FF00300F4D94AE288
:101AD0006169D6F89400002972D040F00100C6F880
:101AE0009400FFF70DFA0546D6F89400800790D4CD
:101AF000FFF706FA401B0228F6D9032003B0BDE821
:101B0000F08300BFB06D5FEAC00808D4B06D40F04C
:101B10008050B065B06D00F080500090009847F2A2
:101B20000007C4F200073868C00513D4386840F4D1
:101B300080703860FFF7E4F9054600BF3868C005DB
:101B400008D4FFF7DDF9401B02284FF00300F5D958
:101B500009E200BFA068012808D0052840F0B08045
:101B6000D6F8900040F00400C6F89000D6F8900037
:101B700040F00100C6F89000B1E000BF306800F00E
:101B8000F00085427FF6D8AEB06DC00000F18A80CB
:101B9000B06D40F08050B065B06D00F080500190A5
:101BA0000198FFF79BFAB16D21F08051B165B0F556
:101BB000007F00F07D80802D40F2D0800320D8E0AF
:101BC00020F00100C6F89400FFF79AF9054600BF1F
:101BD000D6F8940080077FF51CAFFFF791F9401B02
:101BE00002284FF00300F3D9BDE100BFB9F10C0F9B
:101BF00000F05281306820F080703060FFF780F98B
:101C0000044600BF3068800140F1E280FFF778F9B8
:101C1000001B02284FF00300F4D9A4E1B9F10C0F26
:101C200000F03A813068400100F136813068C00030
:101C300000F13281306820F080703060FFF760F989
:101C400005463068800140F19181FFF759F9401B4A
:101C500002284FF00300F4D985E100BF20F0010015
:101C60003060FFF74DF90546306880077FF511AE0B
:101C7000FFF746F9401B02284FF00300F4D972E148
:101C8000306840F0080030603068D4E9071220F076
:101C9000F00010433060706820F47F4040EA01207B
:101CA0007060F6E5FFF71AFAB0F5007F7FF483AFB6
:101CB000812D5DD30120A02D88BF022059E000BFF7
:101CC000D6F89010002821F00101C6F89010D6F83F
:101CD000901021F00401C6F8901000F08580FFF705
:101CE0000FF9054641F28837D6F89000800700F1D9
:101CF0008D80FFF705F9401BB842F5D9032003B0EA
:101D0000BDE8F0833168002821F48031316031680A
:101D100021F48021316000F08380FFF7F1F805465F
:101D2000306880033FF541AEFFF7EAF8401B6428B6
:101D30004FF00300F4D916E120F480703060FFF713
:101D4000DFF80546306840057FF560AEFFF7D8F84C
:101D5000401B02284FF00300F4D904E1A5F1700004
:101D6000B0FA80F04009802D08BF022001E000BFDA
:101D7000002042F20001C4F202010A6822F00702C8
:101D800002440A60096801F00701814240F0848042
:101D9000306840F0080030603068D4E9071220F065
:101DA000F00010433060706820F47F4040EA01206A
:101DB00070605EE0FFF792F9B0F5007F7FF4E8AD68
:101DC000812D47D30120A02D88BF022043E000BF12
:101DD000F0684FF6FC71CFF6EE610840F06000202D
:101DE00003B0BDE8F08300BFFFF78AF8054641F273
:101DF000883700BFD6F89000800707D5FFF780F836
:101E0000401BB8424FF00300F4D9ACE0B8F1000F2A
:101E10003FF502AEB06D20F08050B065FCE500BF2C
:101E2000FFF76EF8054600BF306880037FF5BDAD53
:101E3000FFF766F8401B64284FF00300F4D992E0E6
:101E4000A5F17000B0FA80F04009802D08BF022093
:101E500001E000BF002042F20001C4F202010A6862
:101E600022F0070202440A60096801F0070181427A
:101E700012D1B068F16810F00C0005D00C282BD1FD
:101E800001F00301012927D13168090708D4D6F8E8
:101E90009410090A06E000BF012003B0BDE8F083FA
:101EA0003168090942F6B07201F00F01C0F6000274
:101EB00052F8211000280A4618BF00220C2837D1FA
:101EC000F06800F00300022810D0032804BF41F29C
:101ED0000021C0F27A010DE004281FD0082823D188
:101EE00041F20022C0F27A0222E000BF42F2004139
:101EF000C0F2F401F068F268C0F30210C2F30622E7
:101F00005143F2680130B1FBF0F0C2F341610222AB
:101F100002EB4101B0FBF1F20AE000BF42F20042E5
:101F2000C0F2F40204E000BF002200210C28C7D058
:101F3000B06842F69671C0F30310C0F60001085C69
:101F400000F01F0022FA00F140F20400C2F200008B
:101F500040F208020068C2F200021160FEF7FCFFC6
:101F600000283FF496AC03B0BDE8F083F06848F277
:101F70008C01CFF69D1104F12C0700EA010C8ECFE5
:101F8000D4E90F546FF00F0040F2000E00EB021086
:101F9000CFF6E07E41EA0C010EEA05554FF07E4295
:101FA0000843A5F5001502EA046240EA032002F1A5
:101FB0007E420EF5F014284304EA473710433843B5
:101FC000F060306840F080703060F06840F0807001
:101FD000F060FEF795FF04463068800108D4FEF7F4
:101FE0008FFF001B02284FF00300F5D9BBE700BFAD
:101FF000002003B0BDE8F083411E0020B0EB116F5C
:102000001CBF012070474EF21002CEF20002516058
:102010004EF62351CEF20001F0230B7007219060A1
:102020001160704710B5C0B10446C06F28B90020D8
:1020300084F87800204600F025F82420E067206826
:10204000616A026822F00102026011B1204600F0CC
:1020500079FA204600F0A0FB10B1012010BD00BFAE
:102060002168486820F490404860886820F02A0081
:102070008860086840F0010220460A60BDE8104010
:1020800000F0D6BA10B5A8B0044601A804308421E7
:10209000FEF7E5F9206844F20041C4F200018842ED
:1020A00002D028B010BD00BF022401A80194FFF7A0
:1020B0001DF8002818BFFEF7BBFA41F24C00C4F22D
:1020C0000200C16841F40031C160C16801F400310F
:1020D00023912399016841F001010160006823A95F
:1020E00000F00100239023980C20CDE92304002068
:1020F000259003202690072027904FF09040FEF770
:1021000011FE28B010BD00002DE9F04381B0044657
:10211000D0F8800020282BD10E4600294FF0010076
:102120005ED01746002A5BD0002022211D46C4F84D
:102130008400C4F880102066FEF7E2FEA4F8587010
:10214000A4F85A70A1688046B1B1B1F1805F17D090
:10215000B1F5805F18D1206980B940F2FF17A4F86B
:102160005C70B1460026B4F85A00B8B932E000BF3E
:10217000022001B0BDE8F083206938B9FF2706E0EE
:10218000206918B13F2702E0002700E07F274FF0C9
:102190000009A4F85C70B4F85A00D8B12046202198
:1021A00000224346009500F021FCA8B92068002ECB
:1021B000808C00EA070012BF06F8010B29F8020B19
:1021C0000026B4F85A000138A4F85A00B4F85A00AE
:1021D0000028E3D1002000E003202021C4F8801073
:1021E00001B0BDE8F08300002DE9F04182B0044663
:1021F000C06F20281ED10D4600294FF001004AD0A3
:102200001746002A47D00020C4F8840021209846B1
:10221000E067FEF775FEA4F85070A4F85270A1684C
:102220000746B1F5805F01D1206938B12E460025FF
:1022300011E000BF022002B0BDE8F08100260AE0F4
:1022400035F8021B00266FF35F210185B4F85200B8
:102250000138A4F85200B4F8520078B12046802129
:1022600000223B46CDF8008000F0C0FBB0B92068EA
:10227000002EE5D016F8011BE7E700BF20464021FD
:1022800000223B46CDF8008000F0B0FB2021E16742
:10229000002818BF032002B0BDE8F0812020E067CD
:1022A000032002B0BDE8F081FEE70000FEE7000079
:1022B000FEE7000070470000F0B581B041F2000772
:1022C000C4F20207FA680D469107044614D0F86874
:1022D000216800F0030088424FF0010040F0918037
:1022E000002900F08E80F8686168C0F302100130A8
:1022F00088420BD120E000BF206803280AD00228C2
:102300003ED0012802D1396889070AD4012001B0E2
:10231000F0BD00BF396889035CBF39685FEA4131AD
:10232000F4D5F96862686FF00F0321F0730103EBD5
:10233000021211430843F860386820F0806038606A
:10234000FEF7DEFD064600BF3868000106D5FEF741
:10235000D7FD801B0228F7D94AE000BF012D13D01A
:1023600025BB386948F2FF01CFF6FD710840D4E97A
:1023700002120023CFF6FE7303EA423224E000BFCC
:1023800039684905C2D5CCE748F2FF013869CFF674
:10239000FF112269002301F1B461CFF6E073084018
:1023A000A16803EA0252A2F500120DE0386948F272
:1023B000FF016269CFF6FF114FF07E430840A1682C
:1023C00003EA026202F17E4240EA012010433861D2
:1023D000386840F080603860FEF792FD054600BF27
:1023E0003868000108D4FEF78BFD401B0228F7D99E
:1023F000032001B0F0BD00BFA0693969084338610E
:10240000002001B0F0BD0000F0B581B041F200073E
:10241000C4F20207FA680D469107044612D0F86824
:10242000216800F0030088424FF0010079D10029B3
:1024300077D0F8686168C0F30210013088420BD190
:1024400020E000BF206803280AD002283ED00128DF
:1024500002D1396889070AD4012001B0F0BD00BF5C
:10246000396889035CBF39685FEA4131F4D5F9689E
:1024700062686FF00F0321F0730103EB0212114346
:102480000843F860386820F080503860FEF738FD67
:10249000064600BF3868800006D5FEF731FD801B78
:1024A0000228F7D934E000BF7969A0684FEA00201C
:1024B00085B148F2FF02CFF6FF12114022694FF0BA
:1024C0007E4303EA026202F17E420EE0396849056A
:1024D000C2D5CCE748F2FF02CFF6FD721140E268A8
:1024E0000023CFF6FE7303EA4232084310437861BB
:1024F000386840F080503860FEF702FD054600BFA6
:102500003868800008D4FEF7FBFC401B0228F7D98E
:10251000032001B0F0BD00BF6069796908437861AC
:10252000002001B0F0BD000070470000FEF7EEBCD7
:102530004EF68850CEF20000016841F4700101604F
:1025400070470000416A0A070ED4CA0717D18A07EC
:1025500020D44A0729D4CA0632D48A063BD480B58F
:102560004A0644D458E000BF0268D0F834C053682B
:1025700023F4004343EA0C035360CA07E7D0026820
:10258000D0F828C0536823F4003343EA0C035360A7
:102590008A07DED50268D0F82CC0536823F4803354
:1025A00043EA0C0353604A07D5D50268D0F830C01F
:1025B000536823F4802343EA0C035360CA06CCD546
:1025C0000268D0F838C0936823F4805343EA0C03C0
:1025D00093608A06C3D50268D0F83CC0936823F4A0
:1025E000005343EA0C03936080B54A0614D5026891
:1025F000D0F840C05368BCF5801F23F4801343EA31
:102600000C03536008D1D2F804C0D0F844E02CF495
:10261000C00343EA0E035360090658BF80BD01683A
:10262000806C4A6822F400221043486080BD00009C
:10263000B0B582B004460020C4F88400FEF760FC08
:10264000216805460A68120735D56FF07E4C204692
:102650004FF4001100222B46CDF800C000F0C6F95F
:1026600040B300BF206850E8000F216820F08000D0
:1026700041E80002DAB1206850E8000F216820F03C
:10268000800041E8000292B1206850E8000F216804
:1026900020F0800041E800024AB1206850E8000FB5
:1026A000216820F0800041E80002002ADAD12020D1
:1026B000E0675FE021680868400761D56FF07E4CF5
:1026C00020464FF4800100222B46CDF800C000F0D8
:1026D0008DF9002854D000BF206850E8000F216811
:1026E00020F4907041E80002E2B1206850E8000F49
:1026F000216820F4907041E800029AB1206850E807
:10270000000F216820F4907041E8000252B1206867
:1027100050E8000F216820F4907041E80002002A80
:10272000DAD100BF206850E8020F216820F00100D4
:1027300041E80202DAB1206850E8020F216820F077
:10274000010041E8020292B1206850E8020F2168BE
:1027500020F0010041E802024AB1206850E8020F6F
:10276000216820F0010041E80202002ADAD120208D
:10277000C4F880000320002184F8781002B0B0BDB6
:102780002020E067C4F880000020206660660021F9
:1027900084F8781002B0B0BDB0B5054605F1080464
:1027A0001ECC0068194341EA0403D5F81CE0046814
:1027B00046F6F311CEF6FF712140194341EA0E01AE
:1027C0000160416848F2000C21F44051114341601E
:1027D000AA69C4F2000C60451CBF296A0A438168DB
:1027E000102321F430611143816044F6FF71C4F27B
:1027F0000001884218DC44F20041C4F20001884222
:1028000028D044F60001C4F2000188422AD044F6E0
:102810000041C4F20001884242D141F28801C4F271
:10282000020109688B0933E045F20001C4F200019E
:1028300088421FD0604525D043F60001C4F2010153
:1028400088422DD141F28801C4F202010B6863A2D3
:1028500022E000BF41F28801C4F2020109688B083E
:1028600016E000BF41F28801C4F2020109680B09B9
:102870000EE000BF41F28801C4F2020109680B0AB0
:1028800006E000BF41F28801C4F2020109688B0A28
:1028900042F6E072C0F6000203F0030152F8213064
:1028A000604542F20040C0F2F40015D0BEF5004F82
:1028B00022D1082B4FF0010100F28B80DFE803F0FA
:1028C00006505A8954898989580000BFFEF73EFF97
:1028D00000284FD179E000BF082B4FF0010100F232
:1028E0007880DFE803F0057621761B7676761F0088
:1028F000FEF72CFFC0B968E0082B4FF0010100F291
:102900006880DFE803F0054B55664F666666530046
:10291000FEF71CFF00284BD157E000BFFEF742FF37
:1029200010B952E04FF400406A6802EB420188425D
:102930004FF001014DD3130398424AD8010E000213
:1029400010EB520041F100010023FDF7A7FC4FF608
:102950000052A0F54071C0F20F02914233D337E02C
:10296000FEF70AFF30B930E0FEF71CFF10B92CE08B
:102970004FF4004069684A0802EB4000B0FBF1F0F8
:102980004FF6EF72A0F11001914221D84FF6F0718D
:102990000140C0F34200084415E000BFFEF7ECFE22
:1029A00030B912E0FEF7FEFE10B90EE04FF4004021
:1029B00069684FF6EF7200EB5100B0FBF1F0A0F147
:1029C0001001914204D82968C860002101E000BFCD
:1029D000012100220846AA66EA66B0BD0100000097
:1029E0000400000002000000080000002DE9F04192
:1029F000044600681546C2690E461140891BB1FAAB
:102A000081F14909A94227D1DDF81880B8F1000FFA
:102A100026D018F1010129D1C1693140891BB1FAD1
:102A200081F14909A94217D1C1693140891BB1FA25
:102A300081F14909A9420FD1C1693140891BB1FA1D
:102A400081F14909A94207D1C1693140891BB1FA15
:102A500081F14909A942DFD00020BDE8F08100BF23
:102A6000FEF74EFA0320BDE8F08100BF1F4607E0E5
:102A7000C0693040801BB0FA80F04009A842EBD119
:102A8000FEF73EFAC01B404500F28E8020680168C8
:102A90004907EDD5C169090700F18A80C1690905B7
:102AA000E6D54FF400610162206850E8000F21680C
:102AB00020F4907041E80002BAB3206850E8000F9B
:102AC000216820F4907041E8000272B3206850E859
:102AD000000F216820F4907041E800022AB32068BA
:102AE00050E8000F216820F4907041E80002002AAD
:102AF000DAD11AE0206850E8020F216820F00100C6
:102B000041E80202DAB1206850E8020F216820F0A3
:102B1000010041E8020292B1206850E8020F2168EA
:102B200020F0010041E802024AB1206850E8020F9B
:102B3000216820F0010041E80202002ADAD1206E6B
:102B4000012824D1206850E8000F216820F01000EF
:102B500041E80002DAB1206850E8000F216820F057
:102B6000100041E8000292B1206850E8000F21688F
:102B700020F0100041E800024AB1206850E8000F40
:102B8000216820F0100041E80002002ADAD120205C
:102B90000021C4F880002166A166C4F884000320E7
:102BA00084F87810BDE8F0810320BDE8F08100BF13
:102BB00008210162206850E8000F216820F490701D
:102BC00041E80002BAB3206850E8000F216820F401
:102BD000907041E8000272B3206850E8000F21684D
:102BE00020F4907041E800022AB3206850E8000FFA
:102BF000216820F4907041E80002002ADAD11AE03E
:102C0000206850E8020F216820F0010041E802022C
:102C1000DAB1206850E8020F216820F0010041E895
:102C2000020292B1206850E8020F216820F00100F2
:102C300041E802024AB1206850E8020F216820F002
:102C4000010041E80202002ADAD1206E012824D1D5
:102C5000206850E8000F216820F0100041E80002D1
:102C6000DAB1206850E8000F216820F0100041E838
:102C7000000292B1206850E8000F216820F0100097
:102C800041E800024AB1206850E8000F216820F0B6
:102C9000100041E80002002ADAD12020C4F88000A8
:102CA000002008212066A066C4F8841084F878000B
:102CB0000120BDE8F0810000FEE7000080B582B091
:102CC000019040F22810C2F2000001A901224FF049
:102CD000FF33FFF789FA019802B080BD96B0FEF786
:102CE00023F905A804302421FDF7B9FB4FF4007047
:102CF000FEF7AEF920B1EFF3108072B6FEE700BF29
:102D00004FF48071089110210991012111910A213C
:102D10000220129107210590CDE90F00CDE9131093
:102D2000159005A8FEF7A0FD20B1EFF3108072B654
:102D3000FEE700BF0F2000900320019000276846A7
:102D40000421CDE9027704974FF00408FEF7C0FB99
:102D500020B1EFF3108072B6FEE700BF41F24C00E5
:102D6000CDE90877C4F20200016840F2004941F061
:102D7000040101600168C4F6000901F0040100913A
:102D80000099016809F5806641F001010160016860
:102D9000002201F00101009100990168812441F0B5
:102DA000020101600068812100F00200009000989B
:102DB0003046FEF79FF84FF090404FF4907100229C
:102DC0004FF4907BFEF796F848464FF48F6100224F
:102DD0004FF48F6AFEF78EF842F2020005ADCDE99E
:102DE0000507304629460797FDF79CFF0594012407
:102DF00030462946CDE906470897FDF793FF122094
:102E0000CDE905074FF0904029460797FDF78AFF67
:102E10004FF090402946CDE905B4CDE90777FDF79D
:102E200081FF48462946CDE905470797FDF77AFF18
:102E300048462946CDE905A4CDE90777FDF772FF9D
:102E400040F2C4000021C2F20000C5F20401C0E952
:102E500000174FF48051CDE90177C0E90277C0E94E
:102E600004780783C46180F82070C0E90A7780F88D
:102E70003070416380F83870FDF7FAFD20B1EFF350
:102E8000108072B6FEE700BF40F2C4000024C2F218
:102E9000000069460094FDF7D1FB28B1EFF31080E4
:102EA00072B600BFFEE700BF2020C1F2F0400590DF
:102EB0000620CDE906047F2008900420CDE909040E
:102EC00040F2C400C2F2000005A9FDF71BFC28B1C6
:102ED000EFF3108072B600BFFEE700BF40F228108B
:102EE00044F20041C2F20000C4F200014FF4165255
:102EF000002480E8160010210C23C0E908414FF49B
:102F00008051C0E90344C0E90534C4618163FFF71F
:102F100089F828B1EFF3108072B600BFFEE700BF5A
:102F200040F2B01147F26F4046F25252C2F2000135
:102F3000C0F60D20C6F66272C1E900200EA00C7228
:102F4000FDF724FA40F22814C2F2000405AD012670
:102F50002046294602224FF0FF33FFF7D5F89DF8AF
:102F6000140030388DF81400C0B206FA00F0C0F337
:102F70004700FDF71FFBEBE725730000F1EE100A99
:102F80004FF6FF71C0F2C03120EA010040F04070FE
:102F9000E1EE100A7047000000000000000001028E
:102FA00003040607080900000000010203040000F2
:102FB000A0860100400D0300801A060000350C00B9
:102FC00040420F0080841E0000093D0000127A007C
:102FD0000024F40000366E010048E801006CDC02B9
:102FE00000000000040000000200000008000000D3
:102FF000103000080000002010000000EC01000864
:103000002030000810000020100800000C0200080A
:10301000010000001000000000093D000000000059
:040000050800018965
:00000001FF
